{
  "_format": "hh-sol-artifact-1",
  "contractName": "Counter",
  "sourceName": "contracts/Counter.sol",
  "abi": [
    {
      "stateMutability": "nonpayable",
      "type": "fallback"
    },
    {
      "inputs": [],
      "name": "decrement",
      "outputs": [],
      "stateMutability": "nonpayable",
      "type": "function"
    },
    {
      "inputs": [],
      "name": "increment",
      "outputs": [],
      "stateMutability": "nonpayable",
      "type": "function"
    },
    {
      "inputs": [],
      "name": "retrieve",
      "outputs": [
        {
          "internalType": "uint256",
          "name": "",
          "type": "uint256"
        }
      ],
      "stateMutability": "view",
      "type": "function"
    }
  ],
  "bytecode": "0x60806040526000805534801561001457600080fd5b5061028a806100246000396000f3fe608060405234801561001057600080fd5b50600436106100455760003560e01c80632baeceb7146100815780632e64cec11461008b578063d09de08a146100a957610046565b5b6040517f08c379a000000000000000000000000000000000000000000000000000000000815260040161007890610147565b60405180910390fd5b6100896100b3565b005b6100936100ca565b6040516100a09190610180565b60405180910390f35b6100b16100d3565b005b60016000546100c291906101ca565b600081905550565b60008054905090565b60016000546100e291906101fe565b600081905550565b600082825260208201905092915050565b7f756e6b6e6f776e2066756e6374696f6e2069732063616c6c6564000000000000600082015250565b6000610131601a836100ea565b915061013c826100fb565b602082019050919050565b6000602082019050818103600083015261016081610124565b9050919050565b6000819050919050565b61017a81610167565b82525050565b60006020820190506101956000830184610171565b92915050565b7f4e487b7100000000000000000000000000000000000000000000000000000000600052601160045260246000fd5b60006101d582610167565b91506101e083610167565b9250828210156101f3576101f261019b565b5b828203905092915050565b600061020982610167565b915061021483610167565b9250827fffffffffffffffffffffffffffffffffffffffffffffffffffffffffffffffff038211156102495761024861019b565b5b82820190509291505056fea264697066735822122092a21fef9e3ce0c9584aa5d02ba619b3598ce66db6bd354578c2efcf1f707ec764736f6c63430008090033",
  "linkReferences": {},
  "deployedLinkReferences": {}
}