{
  "_format": "hh-sol-artifact-1",
  "contractName": "KittyCat",
  "sourceName": "contracts/KittyCat.sol",
  "abi": [
    {
      "inputs": [],
      "stateMutability": "nonpayable",
      "type": "constructor"
    },
    {
      "inputs": [],
      "name": "ApprovalCallerNotOwnerNorApproved",
      "type": "error"
    },
    {
      "inputs": [],
      "name": "ApprovalQueryForNonexistentToken",
      "type": "error"
    },
    {
      "inputs": [],
      "name": "BalanceQueryForZeroAddress",
      "type": "error"
    },
    {
      "inputs": [],
      "name": "MintERC2309QuantityExceedsLimit",
      "type": "error"
    },
    {
      "inputs": [],
      "name": "MintToZeroAddress",
      "type": "error"
    },
    {
      "inputs": [],
      "name": "MintZeroQuantity",
      "type": "error"
    },
    {
      "inputs": [],
      "name": "OwnerQueryForNonexistentToken",
      "type": "error"
    },
    {
      "inputs": [],
      "name": "OwnershipNotInitializedForExtraData",
      "type": "error"
    },
    {
      "inputs": [],
      "name": "TransferCallerNotOwnerNorApproved",
      "type": "error"
    },
    {
      "inputs": [],
      "name": "TransferFromIncorrectOwner",
      "type": "error"
    },
    {
      "inputs": [],
      "name": "TransferToNonERC721ReceiverImplementer",
      "type": "error"
    },
    {
      "inputs": [],
      "name": "TransferToZeroAddress",
      "type": "error"
    },
    {
      "inputs": [],
      "name": "URIQueryForNonexistentToken",
      "type": "error"
    },
    {
      "anonymous": false,
      "inputs": [
        {
          "indexed": true,
          "internalType": "address",
          "name": "owner",
          "type": "address"
        },
        {
          "indexed": true,
          "internalType": "address",
          "name": "approved",
          "type": "address"
        },
        {
          "indexed": true,
          "internalType": "uint256",
          "name": "tokenId",
          "type": "uint256"
        }
      ],
      "name": "Approval",
      "type": "event"
    },
    {
      "anonymous": false,
      "inputs": [
        {
          "indexed": true,
          "internalType": "address",
          "name": "owner",
          "type": "address"
        },
        {
          "indexed": true,
          "internalType": "address",
          "name": "operator",
          "type": "address"
        },
        {
          "indexed": false,
          "internalType": "bool",
          "name": "approved",
          "type": "bool"
        }
      ],
      "name": "ApprovalForAll",
      "type": "event"
    },
    {
      "anonymous": false,
      "inputs": [
        {
          "indexed": true,
          "internalType": "uint256",
          "name": "fromTokenId",
          "type": "uint256"
        },
        {
          "indexed": false,
          "internalType": "uint256",
          "name": "toTokenId",
          "type": "uint256"
        },
        {
          "indexed": true,
          "internalType": "address",
          "name": "from",
          "type": "address"
        },
        {
          "indexed": true,
          "internalType": "address",
          "name": "to",
          "type": "address"
        }
      ],
      "name": "ConsecutiveTransfer",
      "type": "event"
    },
    {
      "anonymous": false,
      "inputs": [
        {
          "indexed": true,
          "internalType": "address",
          "name": "from",
          "type": "address"
        },
        {
          "indexed": true,
          "internalType": "address",
          "name": "to",
          "type": "address"
        },
        {
          "indexed": true,
          "internalType": "uint256",
          "name": "tokenId",
          "type": "uint256"
        }
      ],
      "name": "Transfer",
      "type": "event"
    },
    {
      "inputs": [
        {
          "internalType": "address",
          "name": "to",
          "type": "address"
        },
        {
          "internalType": "uint256",
          "name": "tokenId",
          "type": "uint256"
        }
      ],
      "name": "approve",
      "outputs": [],
      "stateMutability": "payable",
      "type": "function"
    },
    {
      "inputs": [
        {
          "internalType": "address",
          "name": "owner",
          "type": "address"
        }
      ],
      "name": "balanceOf",
      "outputs": [
        {
          "internalType": "uint256",
          "name": "",
          "type": "uint256"
        }
      ],
      "stateMutability": "view",
      "type": "function"
    },
    {
      "inputs": [],
      "name": "baseURI",
      "outputs": [
        {
          "internalType": "string",
          "name": "",
          "type": "string"
        }
      ],
      "stateMutability": "view",
      "type": "function"
    },
    {
      "inputs": [
        {
          "internalType": "uint256",
          "name": "tokenId",
          "type": "uint256"
        }
      ],
      "name": "getApproved",
      "outputs": [
        {
          "internalType": "address",
          "name": "",
          "type": "address"
        }
      ],
      "stateMutability": "view",
      "type": "function"
    },
    {
      "inputs": [
        {
          "internalType": "address",
          "name": "owner",
          "type": "address"
        },
        {
          "internalType": "address",
          "name": "operator",
          "type": "address"
        }
      ],
      "name": "isApprovedForAll",
      "outputs": [
        {
          "internalType": "bool",
          "name": "",
          "type": "bool"
        }
      ],
      "stateMutability": "view",
      "type": "function"
    },
    {
      "inputs": [
        {
          "internalType": "uint256",
          "name": "quantity",
          "type": "uint256"
        }
      ],
      "name": "mint",
      "outputs": [],
      "stateMutability": "payable",
      "type": "function"
    },
    {
      "inputs": [],
      "name": "name",
      "outputs": [
        {
          "internalType": "string",
          "name": "",
          "type": "string"
        }
      ],
      "stateMutability": "view",
      "type": "function"
    },
    {
      "inputs": [
        {
          "internalType": "uint256",
          "name": "tokenId",
          "type": "uint256"
        }
      ],
      "name": "ownerOf",
      "outputs": [
        {
          "internalType": "address",
          "name": "",
          "type": "address"
        }
      ],
      "stateMutability": "view",
      "type": "function"
    },
    {
      "inputs": [],
      "name": "promptDescription",
      "outputs": [
        {
          "internalType": "string",
          "name": "",
          "type": "string"
        }
      ],
      "stateMutability": "pure",
      "type": "function"
    },
    {
      "inputs": [
        {
          "internalType": "address",
          "name": "from",
          "type": "address"
        },
        {
          "internalType": "address",
          "name": "to",
          "type": "address"
        },
        {
          "internalType": "uint256",
          "name": "tokenId",
          "type": "uint256"
        }
      ],
      "name": "safeTransferFrom",
      "outputs": [],
      "stateMutability": "payable",
      "type": "function"
    },
    {
      "inputs": [
        {
          "internalType": "address",
          "name": "from",
          "type": "address"
        },
        {
          "internalType": "address",
          "name": "to",
          "type": "address"
        },
        {
          "internalType": "uint256",
          "name": "tokenId",
          "type": "uint256"
        },
        {
          "internalType": "bytes",
          "name": "_data",
          "type": "bytes"
        }
      ],
      "name": "safeTransferFrom",
      "outputs": [],
      "stateMutability": "payable",
      "type": "function"
    },
    {
      "inputs": [
        {
          "internalType": "address",
          "name": "operator",
          "type": "address"
        },
        {
          "internalType": "bool",
          "name": "approved",
          "type": "bool"
        }
      ],
      "name": "setApprovalForAll",
      "outputs": [],
      "stateMutability": "nonpayable",
      "type": "function"
    },
    {
      "inputs": [
        {
          "internalType": "bytes4",
          "name": "interfaceId",
          "type": "bytes4"
        }
      ],
      "name": "supportsInterface",
      "outputs": [
        {
          "internalType": "bool",
          "name": "",
          "type": "bool"
        }
      ],
      "stateMutability": "view",
      "type": "function"
    },
    {
      "inputs": [],
      "name": "symbol",
      "outputs": [
        {
          "internalType": "string",
          "name": "",
          "type": "string"
        }
      ],
      "stateMutability": "view",
      "type": "function"
    },
    {
      "inputs": [
        {
          "internalType": "uint256",
          "name": "tokenId",
          "type": "uint256"
        }
      ],
      "name": "tokenURI",
      "outputs": [
        {
          "internalType": "string",
          "name": "",
          "type": "string"
        }
      ],
      "stateMutability": "view",
      "type": "function"
    },
    {
      "inputs": [],
      "name": "totalSupply",
      "outputs": [
        {
          "internalType": "uint256",
          "name": "",
          "type": "uint256"
        }
      ],
      "stateMutability": "view",
      "type": "function"
    },
    {
      "inputs": [
        {
          "internalType": "address",
          "name": "from",
          "type": "address"
        },
        {
          "internalType": "address",
          "name": "to",
          "type": "address"
        },
        {
          "internalType": "uint256",
          "name": "tokenId",
          "type": "uint256"
        }
      ],
      "name": "transferFrom",
      "outputs": [],
      "stateMutability": "payable",
      "type": "function"
    }
  ],
  "bytecode": "0x600560085561010060405260516080818152906200122f60a03980516200002f91600991602090910190620000ac565b503480156200003d57600080fd5b50604080518082018252600881526712da5d1d1e50d85d60c21b6020808301918252835180850190945260038452624b544360e81b9084015281519192916200008991600291620000ac565b5080516200009f906003906020840190620000ac565b505060008055506200018f565b828054620000ba9062000152565b90600052602060002090601f016020900481019282620000de576000855562000129565b82601f10620000f957805160ff191683800117855562000129565b8280016001018555821562000129579182015b82811115620001295782518255916020019190600101906200010c565b50620001379291506200013b565b5090565b5b808211156200013757600081556001016200013c565b600181811c908216806200016757607f821691505b602082108114156200018957634e487b7160e01b600052602260045260246000fd5b50919050565b611090806200019f6000396000f3fe6080604052600436106100fe5760003560e01c80636c0360eb11610095578063a0712d6811610064578063a0712d6814610290578063a22cb465146102a3578063b88d4fde146102c3578063c87b56dd146102d6578063e985e9c5146102f657600080fd5b80636c0360eb1461021057806370a0823114610225578063953637311461024557806395d89b411461027b57600080fd5b806318160ddd116100d157806318160ddd146101a757806323b872dd146101ca57806342842e0e146101dd5780636352211e146101f057600080fd5b806301ffc9a71461010357806306fdde0314610138578063081812fc1461015a578063095ea7b314610192575b600080fd5b34801561010f57600080fd5b5061012361011e366004610cd1565b61033f565b60405190151581526020015b60405180910390f35b34801561014457600080fd5b5061014d610391565b60405161012f9190610d46565b34801561016657600080fd5b5061017a610175366004610d59565b610423565b6040516001600160a01b03909116815260200161012f565b6101a56101a0366004610d8e565b610467565b005b3480156101b357600080fd5b50600154600054035b60405190815260200161012f565b6101a56101d8366004610db8565b610507565b6101a56101eb366004610db8565b610698565b3480156101fc57600080fd5b5061017a61020b366004610d59565b6106b8565b34801561021c57600080fd5b5061014d6106c3565b34801561023157600080fd5b506101bc610240366004610df4565b610751565b34801561025157600080fd5b5060408051808201909152600d81526c25b4ba3a3c9031b0b93a37b7b760991b602082015261014d565b34801561028757600080fd5b5061014d6107a0565b6101a561029e366004610d59565b6107af565b3480156102af57600080fd5b506101a56102be366004610e0f565b610822565b6101a56102d1366004610e61565b61088e565b3480156102e257600080fd5b5061014d6102f1366004610d59565b6108d8565b34801561030257600080fd5b50610123610311366004610f3d565b6001600160a01b03918216600090815260076020908152604080832093909416825291909152205460ff1690565b60006301ffc9a760e01b6001600160e01b03198316148061037057506380ac58cd60e01b6001600160e01b03198316145b8061038b5750635b5e139f60e01b6001600160e01b03198316145b92915050565b6060600280546103a090610f70565b80601f01602080910402602001604051908101604052809291908181526020018280546103cc90610f70565b80156104195780601f106103ee57610100808354040283529160200191610419565b820191906000526020600020905b8154815290600101906020018083116103fc57829003601f168201915b5050505050905090565b600061042e8261095d565b61044b576040516333d1c03960e21b815260040160405180910390fd5b506000908152600660205260409020546001600160a01b031690565b6000610472826106b8565b9050336001600160a01b038216146104ab5761048e8133610311565b6104ab576040516367d9dca160e11b815260040160405180910390fd5b60008281526006602052604080822080546001600160a01b0319166001600160a01b0387811691821790925591518593918516917f8c5be1e5ebec7d5bd14f71427d1e84f3dd0314c0f7b2291e5b200ac8c7c3b92591a4505050565b600061051282610984565b9050836001600160a01b0316816001600160a01b0316146105455760405162a1148160e81b815260040160405180910390fd5b60008281526006602052604090208054338082146001600160a01b03881690911417610592576105758633610311565b61059257604051632ce44b5f60e11b815260040160405180910390fd5b6001600160a01b0385166105b957604051633a954ecd60e21b815260040160405180910390fd5b80156105c457600082555b6001600160a01b038681166000908152600560205260408082208054600019019055918716808252919020805460010190554260a01b17600160e11b17600085815260046020526040902055600160e11b831661064f576001840160008181526004602052604090205461064d57600054811461064d5760008181526004602052604090208490555b505b83856001600160a01b0316876001600160a01b03167fddf252ad1be2c89b69c2b068fc378daa952ba7f163c4a11628f55a4df523b3ef60405160405180910390a4505050505050565b6106b38383836040518060200160405280600081525061088e565b505050565b600061038b82610984565b600980546106d090610f70565b80601f01602080910402602001604051908101604052809291908181526020018280546106fc90610f70565b80156107495780601f1061071e57610100808354040283529160200191610749565b820191906000526020600020905b81548152906001019060200180831161072c57829003601f168201915b505050505081565b60006001600160a01b03821661077a576040516323d3ad8160e21b815260040160405180910390fd5b506001600160a01b031660009081526005602052604090205467ffffffffffffffff1690565b6060600380546103a090610f70565b600854816107c06001546000540390565b6107ca9190610fab565b11156108155760405162461bcd60e51b8152602060048201526016602482015275139bdd08195b9bdd59da081d1bdad95b9cc81b19599d60521b604482015260640160405180910390fd5b61081f33826109e5565b50565b3360008181526007602090815260408083206001600160a01b03871680855290835292819020805460ff191686151590811790915590519081529192917f17307eab39ab6107e8899845ad3d59bd9653f200f220920489ca2b5937696c31910160405180910390a35050565b610899848484610507565b6001600160a01b0383163b156108d2576108b584848484610a03565b6108d2576040516368d2bf6b60e11b815260040160405180910390fd5b50505050565b60606108e38261095d565b61090057604051630a14c4b560e41b815260040160405180910390fd5b600061090a610afa565b905080516000141561092b5760405180602001604052806000815250610956565b8061093584610b09565b604051602001610946929190610fd1565b6040516020818303038152906040525b9392505050565b600080548210801561038b575050600090815260046020526040902054600160e01b161590565b6000816000548110156109cc57600081815260046020526040902054600160e01b81166109ca575b806109565750600019016000818152600460205260409020546109ac565b505b604051636f96cda160e11b815260040160405180910390fd5b6109ff828260405180602001604052806000815250610b57565b5050565b604051630a85bd0160e11b81526000906001600160a01b0385169063150b7a0290610a38903390899088908890600401611000565b602060405180830381600087803b158015610a5257600080fd5b505af1925050508015610a82575060408051601f3d908101601f19168201909252610a7f9181019061103d565b60015b610add573d808015610ab0576040519150601f19603f3d011682016040523d82523d6000602084013e610ab5565b606091505b508051610ad5576040516368d2bf6b60e11b815260040160405180910390fd5b805181602001fd5b6001600160e01b031916630a85bd0160e11b149050949350505050565b6060600980546103a090610f70565b606060a06040510180604052602081039150506000815280825b600183039250600a81066030018353600a900480610b4057610b45565b610b23565b50819003601f19909101908152919050565b610b618383610bc4565b6001600160a01b0383163b156106b3576000548281035b610b8b6000868380600101945086610a03565b610ba8576040516368d2bf6b60e11b815260040160405180910390fd5b818110610b78578160005414610bbd57600080fd5b5050505050565b60005481610be55760405163b562e8dd60e01b815260040160405180910390fd5b6001600160a01b03831660008181526005602090815260408083208054680100000000000000018802019055848352600490915281206001851460e11b4260a01b178317905582840190839083907fddf252ad1be2c89b69c2b068fc378daa952ba7f163c4a11628f55a4df523b3ef8180a4600183015b818114610c9457808360007fddf252ad1be2c89b69c2b068fc378daa952ba7f163c4a11628f55a4df523b3ef600080a4600101610c5c565b5081610cb257604051622e076360e81b815260040160405180910390fd5b60005550505050565b6001600160e01b03198116811461081f57600080fd5b600060208284031215610ce357600080fd5b813561095681610cbb565b60005b83811015610d09578181015183820152602001610cf1565b838111156108d25750506000910152565b60008151808452610d32816020860160208601610cee565b601f01601f19169290920160200192915050565b6020815260006109566020830184610d1a565b600060208284031215610d6b57600080fd5b5035919050565b80356001600160a01b0381168114610d8957600080fd5b919050565b60008060408385031215610da157600080fd5b610daa83610d72565b946020939093013593505050565b600080600060608486031215610dcd57600080fd5b610dd684610d72565b9250610de460208501610d72565b9150604084013590509250925092565b600060208284031215610e0657600080fd5b61095682610d72565b60008060408385031215610e2257600080fd5b610e2b83610d72565b915060208301358015158114610e4057600080fd5b809150509250929050565b634e487b7160e01b600052604160045260246000fd5b60008060008060808587031215610e7757600080fd5b610e8085610d72565b9350610e8e60208601610d72565b925060408501359150606085013567ffffffffffffffff80821115610eb257600080fd5b818701915087601f830112610ec657600080fd5b813581811115610ed857610ed8610e4b565b604051601f8201601f19908116603f01168101908382118183101715610f0057610f00610e4b565b816040528281528a6020848701011115610f1957600080fd5b82602086016020830137600060208483010152809550505050505092959194509250565b60008060408385031215610f5057600080fd5b610f5983610d72565b9150610f6760208401610d72565b90509250929050565b600181811c90821680610f8457607f821691505b60208210811415610fa557634e487b7160e01b600052602260045260246000fd5b50919050565b60008219821115610fcc57634e487b7160e01b600052601160045260246000fd5b500190565b60008351610fe3818460208801610cee565b835190830190610ff7818360208801610cee565b01949350505050565b6001600160a01b038581168252841660208201526040810183905260806060820181905260009061103390830184610d1a565b9695505050505050565b60006020828403121561104f57600080fd5b815161095681610cbb56fea2646970667358221220fc5906cdf8c49758880ce7600b4de6540f49cf6ebe48aacae3d7622c76ec377164736f6c6343000809003368747470733a2f2f676174657761792e70696e6174612e636c6f75642f697066732f516d5267414a6175313768597566734a4b48714a6b4b7762764569536e6e504d4a3147716f4b6f554a4e523975592f",
  "linkReferences": {},
  "deployedLinkReferences": {}
}