{
  "_format": "hh-sol-artifact-1",
  "contractName": "NFTMarketplace",
  "sourceName": "contracts/NFTMarketplace.sol",
  "abi": [
    {
      "inputs": [
        {
          "internalType": "address",
          "name": "nftAddress",
          "type": "address"
        },
        {
          "internalType": "uint256",
          "name": "tokenId",
          "type": "uint256"
        }
      ],
      "name": "acceptBid",
      "outputs": [],
      "stateMutability": "nonpayable",
      "type": "function"
    },
    {
      "inputs": [
        {
          "internalType": "address",
          "name": "",
          "type": "address"
        },
        {
          "internalType": "uint256",
          "name": "",
          "type": "uint256"
        }
      ],
      "name": "bids",
      "outputs": [
        {
          "internalType": "address",
          "name": "bidder",
          "type": "address"
        },
        {
          "internalType": "uint256",
          "name": "amount",
          "type": "uint256"
        }
      ],
      "stateMutability": "view",
      "type": "function"
    },
    {
      "inputs": [
        {
          "internalType": "address",
          "name": "nftAddress",
          "type": "address"
        },
        {
          "internalType": "uint256",
          "name": "tokenId",
          "type": "uint256"
        }
      ],
      "name": "checkNFTOwner",
      "outputs": [
        {
          "internalType": "address",
          "name": "",
          "type": "address"
        }
      ],
      "stateMutability": "view",
      "type": "function"
    },
    {
      "inputs": [
        {
          "internalType": "address",
          "name": "",
          "type": "address"
        },
        {
          "internalType": "address",
          "name": "",
          "type": "address"
        },
        {
          "internalType": "uint256",
          "name": "",
          "type": "uint256"
        },
        {
          "internalType": "bytes",
          "name": "",
          "type": "bytes"
        }
      ],
      "name": "onERC721Received",
      "outputs": [
        {
          "internalType": "bytes4",
          "name": "",
          "type": "bytes4"
        }
      ],
      "stateMutability": "pure",
      "type": "function"
    },
    {
      "inputs": [
        {
          "internalType": "address",
          "name": "nftAddress",
          "type": "address"
        },
        {
          "internalType": "uint256",
          "name": "tokenId",
          "type": "uint256"
        }
      ],
      "name": "placeBid",
      "outputs": [],
      "stateMutability": "payable",
      "type": "function"
    }
  ],
  "bytecode": "0x608060405234801561001057600080fd5b50610647806100206000396000f3fe60806040526004361061004a5760003560e01c806301495c1c1461004f578063150b7a02146100bb578063357fe7e314610100578063955a5a7614610138578063d98b9bb51461015a575b600080fd5b34801561005b57600080fd5b5061009761006a366004610522565b6000602081815292815260408082209093529081522080546001909101546001600160a01b039091169082565b604080516001600160a01b0390931683526020830191909152015b60405180910390f35b3480156100c757600080fd5b506100e76100d636600461054e565b630a85bd0160e11b95945050505050565b6040516001600160e01b031990911681526020016100b2565b34801561010c57600080fd5b5061012061011b366004610522565b61016d565b6040516001600160a01b0390911681526020016100b2565b34801561014457600080fd5b50610158610153366004610522565b6101f2565b005b610158610168366004610522565b6103b7565b6040516331a9108f60e11b81526004810182905260009081906001600160a01b03851690636352211e9060240160206040518083038186803b1580156101b257600080fd5b505afa1580156101c6573d6000803e3d6000fd5b505050506040513d601f19601f820116820180604052508101906101ea91906105ed565b949350505050565b6001600160a01b0382166000818152602081815260408083208584529091529081902090516331a9108f60e11b81526004810184905290913391636352211e9060240160206040518083038186803b15801561024d57600080fd5b505afa158015610261573d6000803e3d6000fd5b505050506040513d601f19601f8201168201806040525081019061028591906105ed565b6001600160a01b0316146102e05760405162461bcd60e51b815260206004820152601f60248201527f4f6e6c7920746865206f776e65722063616e206163636570742061206269640060448201526064015b60405180910390fd5b8054604051632142170760e11b81523360048201526001600160a01b03918216602482015260448101849052908416906342842e0e90606401600060405180830381600087803b15801561033357600080fd5b505af1158015610347573d6000803e3d6000fd5b5050506001820154604051339250829180156108fc02916000818181858888f1935050505015801561037d573d6000803e3d6000fd5b5050506001600160a01b0390911660009081526020818152604080832093835292905290812080546001600160a01b031916815560010155565b600034116104115760405162461bcd60e51b815260206004820152602160248201527f42696420616d6f756e74206d7573742062652067726561746572207468616e206044820152600360fc1b60648201526084016102d7565b6001600160a01b0382166000908152602081815260408083208484529091529020600181015434116104a45760405162461bcd60e51b815260206004820152603660248201527f42696420616d6f756e74206d75737420626520686967686572207468616e20746044820152751a194818dd5c9c995b9d081a1a59da195cdd08189a5960521b60648201526084016102d7565b6001810154156104ef57805460018201546040516001600160a01b0390921691829180156108fc02916000818181858888f193505050501580156104ec573d6000803e3d6000fd5b50505b80546001600160a01b03191633178155346001909101555050565b6001600160a01b038116811461051f57600080fd5b50565b6000806040838503121561053557600080fd5b82356105408161050a565b946020939093013593505050565b60008060008060006080868803121561056657600080fd5b85356105718161050a565b945060208601356105818161050a565b935060408601359250606086013567ffffffffffffffff808211156105a557600080fd5b818801915088601f8301126105b957600080fd5b8135818111156105c857600080fd5b8960208285010111156105da57600080fd5b9699959850939650602001949392505050565b6000602082840312156105ff57600080fd5b815161060a8161050a565b939250505056fea2646970667358221220ec0f0e38ee2b2653a8ded5f64c733917b25686c6c95bfc7d5442a3f4b9c6f35a64736f6c63430008090033",
  "linkReferences": {},
  "deployedLinkReferences": {}
}