{
  "_format": "hh-sol-artifact-1",
  "contractName": "NFTMarketplace",
  "sourceName": "contracts/NFTMarketplace.sol",
  "abi": [
    {
      "inputs": [
        {
          "internalType": "address",
          "name": "nftAddress",
          "type": "address"
        },
        {
          "internalType": "uint256",
          "name": "tokenId",
          "type": "uint256"
        }
      ],
      "name": "acceptBid",
      "outputs": [],
      "stateMutability": "nonpayable",
      "type": "function"
    },
    {
      "inputs": [
        {
          "internalType": "address",
          "name": "",
          "type": "address"
        },
        {
          "internalType": "uint256",
          "name": "",
          "type": "uint256"
        }
      ],
      "name": "bids",
      "outputs": [
        {
          "internalType": "address",
          "name": "bidder",
          "type": "address"
        },
        {
          "internalType": "uint256",
          "name": "amount",
          "type": "uint256"
        }
      ],
      "stateMutability": "view",
      "type": "function"
    },
    {
      "inputs": [
        {
          "internalType": "address",
          "name": "nftAddress",
          "type": "address"
        },
        {
          "internalType": "uint256",
          "name": "tokenId",
          "type": "uint256"
        }
      ],
      "name": "placeBid",
      "outputs": [],
      "stateMutability": "payable",
      "type": "function"
    }
  ],
  "bytecode": "0x608060405234801561001057600080fd5b5061048f806100206000396000f3fe6080604052600436106100345760003560e01c806301495c1c14610039578063955a5a76146100a4578063d98b9bb5146100c6575b600080fd5b34801561004557600080fd5b50610081610054366004610409565b6000602081815292815260408082209093529081522080546001909101546001600160a01b039091169082565b604080516001600160a01b03909316835260208301919091520160405180910390f35b3480156100b057600080fd5b506100c46100bf366004610409565b6100d9565b005b6100c46100d4366004610409565b61029e565b6001600160a01b0382166000818152602081815260408083208584529091529081902090516331a9108f60e11b81526004810184905290913391636352211e9060240160206040518083038186803b15801561013457600080fd5b505afa158015610148573d6000803e3d6000fd5b505050506040513d601f19601f8201168201806040525081019061016c9190610435565b6001600160a01b0316146101c75760405162461bcd60e51b815260206004820152601f60248201527f4f6e6c7920746865206f776e65722063616e206163636570742061206269640060448201526064015b60405180910390fd5b80546040516323b872dd60e01b81523360048201526001600160a01b03918216602482015260448101849052908416906323b872dd90606401600060405180830381600087803b15801561021a57600080fd5b505af115801561022e573d6000803e3d6000fd5b5050506001820154604051339250829180156108fc02916000818181858888f19350505050158015610264573d6000803e3d6000fd5b5050506001600160a01b0390911660009081526020818152604080832093835292905290812080546001600160a01b031916815560010155565b600034116102f85760405162461bcd60e51b815260206004820152602160248201527f42696420616d6f756e74206d7573742062652067726561746572207468616e206044820152600360fc1b60648201526084016101be565b6001600160a01b03821660009081526020818152604080832084845290915290206001810154341161038b5760405162461bcd60e51b815260206004820152603660248201527f42696420616d6f756e74206d75737420626520686967686572207468616e20746044820152751a194818dd5c9c995b9d081a1a59da195cdd08189a5960521b60648201526084016101be565b6001810154156103d657805460018201546040516001600160a01b0390921691829180156108fc02916000818181858888f193505050501580156103d3573d6000803e3d6000fd5b50505b80546001600160a01b03191633178155346001909101555050565b6001600160a01b038116811461040657600080fd5b50565b6000806040838503121561041c57600080fd5b8235610427816103f1565b946020939093013593505050565b60006020828403121561044757600080fd5b8151610452816103f1565b939250505056fea2646970667358221220f7f0c7f08bc77d0dbd42b51f7db1b50a4b8b3709aacc50220caae78ef05c12e164736f6c63430008090033",
  "linkReferences": {},
  "deployedLinkReferences": {}
}